:020000040800F2
:10000000680400209D0100084F100008870D0008BB
:100010004D1000088502000879110008000000005A
:100020000000000000000000000000007310000845
:100030008702000800000000711000087510000819
:10004000B7010008B7010008B7010008B7010008B0
:10005000B7010008B7010008B7010008B7010008A0
:10006000B7010008B7010008B7010008B701000890
:10007000B7010008B7010008B7010008B701000880
:10008000B7010008B7010008B7010008B701000870
:10009000B7010008B7010008B7010008B701000860
:1000A000B7010008B7010008B7010008B701000850
:1000B000B7010008B7010008B7010008B701000840
:1000C000B7010008B7010008B7010008B701000830
:1000D000B7010008B7010008B7010008B701000820
:1000E000B7010008B7010008B7010008B701000810
:1000F000B7010008B7010008B7010008B701000800
:10010000B7010008B7010008B7010008B7010008EF
:10011000B7010008B7010008B7010008B7010008DF
:10012000B7010008B7010008B7010008B7010008CF
:10013000B7010008B7010008B7010008B7010008BF
:10014000B7010008B7010008B7010008B7010008AF
:10015000B7010008B7010008B7010008B70100089F
:10016000B7010008B7010008B7010008B70100088F
:10017000B7010008B7010008B7010008000000003F
:10018000B7010008B7010008DFF80CD000F068F8EC
:1001900000480047B912000868040020064880475C
:1001A00006480047FEE7FEE7FEE7FEE7FEE7FEE75C
:1001B000FEE7FEE7FEE7FEE72511000889010008DB
:1001C0002DE9F05F0546002092469B46884606468C
:1001D000814640241BE0284641464746224600F01F
:1001E0002FF853465A46C01A914110D3114618466B
:1001F000224600F016F82D1A67EB01084F462246FA
:100200000120002100F00DF817EB00094E41201EDF
:10021000A4F10104DFDC484631462A464346BDE8E6
:10022000F09F202A04DB203A00FA02F100207047F8
:100230009140C2F1200320FA03F319439040704724
:10024000202A04DB203A21FA02F00021704721FA2B
:1002500002F3D040C2F12002914008431946704792
:10026000064C074D06E0E06840F0010394E8070003
:1002700098471034AC42F6D3FFF78AFF40130008CA
:1002800060130008FEE7704770B5044600F0E6F81A
:100290000546601C02D004480078044400F0DEF8F3
:1002A000401BA042FAD370BD000000202DE9F84F9A
:1002B000DFF87CB100224FF001084FF0030A4FF045
:1002C0000F090BF1040E00BF0B6808FA02F423407B
:1002D000A3426ED14D68022D01D0122D0ED1D5084A
:1002E00000EB850CDCF820505607F70E09FA07F6EC
:1002F000B5430E69BE402E43CCF820600668550019
:100300000F790AFA05FC07F0030726EA0C06AF404E
:10031000374307604E68012E05D0022E03D0112E00
:1003200001D0122E0ED18668CF6826EA0C06AF40A7
:10033000374387604668A6430C79C4F300149440A1
:1003400034434460C6688C6826EA0C06AC403443EB
:10035000C4604C68E40065D5364C256845F480459A
:100360002560246822F0030504F480440094324C94
:100370002E19D6F8084895072F0F09FA07F5AC4350
:100380002E4DA84201D1002524E02D4DA84201D1D7
:1003900001251FE02B4DA84201D102251AE02A4D6C
:1003A000A84201D1032515E0284DA84202D1042519
:1003B00010E037E0264DA84201D105250AE0254D81
:1003C000A84201D1062505E0234DA84201D1072509
:1003D00000E00825BD402543C6F80858DBF800407A
:1003E0005D464E689C43F60300D51C432C60DEF846
:1003F000004075464E689C43B60300D51C432C60F4
:100400000B4D08352C684E689C43F60200D51C4302
:100410002C60074D0C352C684E689C43B60200D505
:100420001C432C60521C102AFFF44EAFBDE8F88F1D
:10043000003C0140443802400030014000000240CE
:100440000004024000080240000C0240001002407C
:100450000014024000180240001C0240014880685D
:100460007047000000000020006C704770B5040069
:1004700004D094F83D00002510B106E0012070BDC5
:1004800084F83C50204600F011F9242084F83D0007
:100490002068016821F00101016000F081FA334910
:1004A0002268B0FBF1F15160314A6368934206D98A
:1004B0004FF4967359434FF47A73B1FBF3F1236809
:1004C000491C1962616891420BD84900B0FBF1F2F6
:1004D000C2F30B02042A01D2042019E0B0FBF1F0B0
:1004E00016E0A3689BB301EBC10202EB0112B0FB63
:1004F000F2F242F48042120530D04BB301EBC1025C
:1005000002EB0111B0FBF1F040F4804040F40040F8
:100510002168C861D4E90701084321680860D4E96B
:100520000310084321688860D4E905010843216865
:10053000C8602068016841F0010101602564202045
:1005400084F83D00256384F83E50002070BD00E033
:1005500006E001EB4102B0FBF2F2CCE70120D7E765
:1005600001EB4101B0FBF1F0D0E7000040420F0089
:10057000A08601002DE9F84F1F4690468A460446A2
:10058000DDF82890FFF76AFF064694F83D00202822
:100590007ED11923012243492046009600F079FCC0
:1005A00000287DD194F83C00012879D0012084F8FE
:1005B0003C0020680168C90703D1016841F00101CE
:1005C00001602068016821F400610160212084F845
:1005D0003D00102084F83E0000252564C4F82480E6
:1005E00067853148E062608D208533464A46514632
:1005F000204600F0DDFB28B1206C84F83C50042834
:100600004CD00DE0206841698069009030E03246AE
:100610004946204600F0B2FC28B1206C042838D0AE
:100620000320BDE8F88F606A411C61622168007890
:100630000861608D401E6085208D401E80B220853F
:1006400021684A69D24352070BD450B1606A421CF8
:10065000626200780861608D401E6085208D401EBA
:10066000208532464946204600F0ECFB0028D4D1D4
:10067000208D0028CBD154F83D0B016841F4007166
:100680000160202004F81E09E57765770020C8E79F
:1006900006E02068016841F4007101600120C0E7B4
:1006A0000220BEE7020010000000FFFF00B5006856
:1006B0000E4987B0884216D1C020009012200190C8
:1006C000012002900320039004200490694608480A
:1006D000FFF7ECFD0748016841F400110160006874
:1006E00000F40010059007B000BD00000054004069
:1006F00000040240403802400248816802781144F8
:1007000081607047000000200B4810B5016841F47B
:1007100000710160016841F480610160016841F489
:1007200080710160032000F08BF8002000F006F8D3
:1007300000F024F8002010BD003C024070B50D4DC3
:1007400004464FF47A712878B1FBF0F00A49096841
:10075000B1FBF0F000F0FFFA48B9102C07D20022EC
:100760002146501E00F04CF800206C6070BD012046
:1007700070BD0000000000200C0000201F4808B5DC
:10078000016841F480410160006800F480400090FD
:100790001A48001F016841F080510160006800F0B4
:1007A00080500090032000F04BF8002211466FF0BB
:1007B0000B0000F025F8002211466FF00A0000F04F
:1007C0001FF8002211466FF0090000F019F800220E
:1007D0001146501F00F014F800221146101F00F0BF
:1007E0000FF800221146901E00F00AF80022BDE822
:1007F00008401146501E00F003B800004438024083
:10080000F0B40E4B1B680C46C3F30223C3F107057B
:10081000042D00D90425191D072901D2002300E069
:10082000DB1E012606FA05F1491E214099409E4033
:10083000761E16403143F0BC00F00ABC0CED00E01F
:10084000064900F0070208684FF6FF03184040EA27
:100850000220034A10430860704700000CED00E0DE
:100860000000FA052DE9F0470E46050065D0DFF8D7
:100870001481D8F80000F7B200F00F00B04207D2A0
:1008800088F80070D8F8000000F00F00B04254D192
:1008900028683D4C810712D5400703D5206840F4F5
:1008A000E05020602878000703D5206840F46040BD
:1008B00020602068A96820F0F000084320602878B4
:1008C000C0072DD0304968680839012812D00228A5
:1008D00013D0032811D00968890700292DDA21686F
:1008E00021F0030101432160FFF7B8FD814641F289
:1008F000883A0EE009688903EFE709688901ECE7A7
:10090000FFF7ACFDA0EB0901514502D90320BDE87A
:10091000F0872068696800F00C00B0EB810FEFD120
:10092000D8F80010404601F00F01B14207D9077016
:10093000006800F00F00B04201D00120E7E72878FE
:10094000400705D52068E96820F4E050084320609E
:100950002878000706D52068296920F4604040EA1D
:10096000C100206000F02CF82168084AC1F303118F
:10097000515CC840064908600020FFF7DFFE0020F8
:10098000C5E70000003C0240083802402813000878
:100990000C00002001480068704700000C00002097
:1009A0000448054900680968044AC1F38221515C82
:1009B000C84070470C000020083802403813000877
:1009C000154810B5006810F00C02144813D04110FF
:1009D000042A0FD0082A0ED10F4C241F2268236846
:1009E00002F03F025B0207D52068C0F38810A0FB2D
:1009F000010106E0084610BD2168C1F38811A1FB82
:100A000000010023FFF7DCFB2168C1F30141491C11
:100A10004900B0FBF1F010BD083802400024F4009A
:100A20002DE9F84F050076D02878DFF8F8B2BE4CF3
:100A3000C00749D0DBF800105846C1F381010129F5
:100A400008D00068C0F3810002280AD1201D006888
:100A5000400206D52068800336D568680028E2D0B9
:100A600032E06868B0F5803F10D0B0F5A02F206864
:100A700010D020F480302060206820F48020206096
:100A80006868A0B1FFF7EAFC06460CE0206840F475
:100A90008030F4E740F480202060F7E7FFF7DEFCC9
:100AA000801B642873D820688003F7D50CE0FFF71B
:100AB000D5FC064605E000BFFFF7D0FC801B64288C
:100AC000F0D820688003F7D42878DFF860828007A8
:100AD0004FF000093ED5DBF80010584611F00C0F1E
:100AE00009D00068C0F3810002280BD18D48001F97
:100AF0000068400206D42068800715D5E868012800
:100B000009D111E0E868B8B10120C8F80000FFF78A
:100B1000A5FC064605E002E1FFF7A0FC801B0228C9
:100B2000C0D820688007F7D52068296920F0F80030
:100B300040EAC10020600DE0C8F80090FFF78EFC8D
:100B4000064604E0FFF78AFC801B02281FD82068B5
:100B50008007F7D42878000722D5724E7448696957
:100B60006C3671B101210160FFF778FC074604E0A3
:100B7000FFF774FCC01B022809D830688007F7D53E
:100B80000EE0C0F80090FFF769FC074605E083E03F
:100B9000FFF764FCC01B02287ED830688007F7D4BA
:100BA0002878400768D5DFF87CA100270AF1380AC9
:100BB000DAF80000C0000BD4DAF8001041F08051E0
:100BC000CAF80010DAF80000012700F08050009009
:100BD000584E3068C00510D4306840F480703060E2
:100BE000FFF73CFC009005E0FFF738FC0099401A45
:100BF000022851D83068C005F6D54A4EA868683634
:100C000001280FD00528306810D020F00100306096
:100C1000306820F004003060A868B8B1FFF71EFC0F
:100C200000900FE0306840F00100F4E740F004006D
:100C30003060F7E7FFF712FC0099411A41F2883063
:100C4000814264D830688007F4D50EE0FFF706FCD7
:100C5000009007E0FFF702FC0099411A41F288304A
:100C6000814254D830688007F4D42FB1DAF80010EC
:100C700021F08051CAF80010A869C0B3DBF8001059
:100C8000C1F3810102294AD00228484607D0C8F89A
:100C90006000FFF7E3FB00E039E005463AE0474635
:100CA000C8F86000FFF7DAFB064604E0FFF7D6FB62
:100CB000801B02282BD820688001F7D4D5E90701D2
:100CC0000843A96A1C4A490802EB01416A6A41EAE1
:100CD0008211084395F82C1040EA01611148001F69
:100CE000016001203866FFF7B9FB054605E014E016
:100CF000FFF7B4FB401B022809D820688001F7D514
:100D00000BE000BFFFF7AAFB401B022802D903201B
:100D1000BDE8F88F20688001F4D40020F8E70120B6
:100D2000F6E7000008380240003802400000474261
:100D3000800E4742007000400000FFFF4FF0E021AE
:100D40000428086903D020F004000861704740F0CF
:100D50000400FAE7704710B5401EB0F1807F01D360
:100D6000012010BD4FF0E02460610F21601700F0FA
:100D70006FF90020A06107202061002010BD10B590
:100D8000FFF7E8FF10BDFEE701684A69D24352054C
:100D90000CD46FF480624A6104210164002140F8A0
:100DA000301F2022427301730120704700207047DA
:100DB000F8B50446C06A1E460D461746042807D0FB
:100DC000012805D010F5803F02D0206B122804D1F5
:100DD0002068016841F480710160134600224FF0E1
:100DE00001112046009600F054F8A0B92069B0F532
:100DF000804F12D00620216800EAD51040F0F000A4
:100E0000086133463A460E49204600F073F838B17F
:100E1000206C042811D00320F8BD05F0FE0000E08E
:100E2000E8B221680861064933463A46891F2046E0
:100E300000F060F80028EBD1F8BD0120F8BD0000FB
:100E40000800010070B516460D4604461AE020461B
:100E5000FFF79AFF08B1012070BD681C12D025B1C0
:100E6000FFF7FCFA801BA8420CD954F8400F40F061
:100E7000200044F8100900202060202161732073B5
:100E8000032070BD20684069C0434007DFD40020C4
:100E900070BD2DE9F0471E4690460D460446C1F34D
:100EA0000747DDF8209012E0701C10D02EB1FFF73C
:100EB000D5FAA0EB0900B04209D9002044F8300F60
:100EC00020216173A07320730320BDE8F0872068A0
:100ED000012F0AD0806925EA00000004000C06D02A
:100EE00000214145E0D00020EFE74069F3E7012110
:100EF000F7E700002DE9F0479A4691460D46044673
:100F000000264FF02008C1F307472AE02068406917
:100F1000C043400512D42068016841F400710160AB
:100F200021686FF48060486104202064266384F89F
:100F30003D8084F83C600120BDE8F087B9F1FF3FB7
:100F40000FD0B9F1000F05D0FFF788FAA0EB0A0126
:100F5000494506D944F8306F84F80D802673032084
:100F6000EAE72068012F07D0D0F8180025EA000032
:100F70000004000CE0D0C9E74069F7E770B51646F9
:100F80000D4604461AE02046FFF7FEFE08B1012098
:100F900070BD681C12D025B1FFF760FA801BA84213
:100FA0000CD954F8400F40F0200044F810090020FC
:100FB0002060202161732073032070BD2068406988
:100FC000C0430006DFD4002070BD0000094808B50A
:100FD000016841F080010160016801F08001009129
:100FE000016841F002010160006800F00200009019
:100FF00008BD0000303802400E4810B50C490160B1
:101000000D49416000214FF480428160C0E9031224
:1010100041618161C1610162FFF728FA002805D0B2
:10102000BDE81040422105A000F0A7B810BD0000A7
:101030000054004010000020A08601002E2E2F53E7
:1010400072632F6932632E6300000000FEE7704771
:101050000907090E002806DA00F00F0000F1E02071
:1010600080F8141D704700F1E02080F800147047EC
:101070007047704710B5FFF73FFBBDE81040FFF722
:101080007EBE000030B5254893B00025016841F0D0
:1010900080510160006800F0805011902048016884
:1010A00041F4804101600068022400F48040119006
:1010B00001200090000401908001CDE90640082045
:1010C00008904FF4A870CDE9090404200B906846FD
:1010D000FFF7A6FC00B1FEE70CA90F2081E8310064
:1010E0004FF4A0500F904FF48050109005210CA8A1
:1010F000FFF7B8FB00B1FEE7FFF74CFC4FF47A7145
:10110000B0FBF1F0FFF727FE0420FFF717FE0022E7
:101110001146501EFFF774FB13B030BD403802403B
:10112000007000401048016841F4700101600F48F0
:10113000016841F0010101600C4A00210832116090
:1011400002680B4B1A400260031D0A4A1A600268CB
:1011500022F48022026005480C30016002495806E2
:10116000803908607047000088ED00E000380240D8
:10117000FFFFF6FE10300024FEE7FEE702E008C89D
:10118000121F08C1002AFAD170477047002001E001
:1011900001C1121F002AFBD1704710B5332000F0A7
:1011A0001FF8322000F01CF8282000F019F80C205D
:1011B00000F016F8062000F013F8022000F010F8F6
:1011C000BDE810404FF47A70FFF75EB810B50446E2
:1011D00002E0641C00F03AF820780028F9D110BD34
:1011E0001CB500F0F00141F00C0200018DF8042064
:1011F00041F008018DF8051040F00C018DF8061043
:1012000040F008008DF80700642408E00948FFF763
:101210002BF9042803D0192107A0FFF7AEFF042300
:1012200001AA7E2103480094FFF7A4F90028EDD11C
:101230001CBD0000100000202E2E5C5372635C6900
:1012400032632D6C63642E63000000001CB500F057
:10125000F00141F00D0200018DF8042041F0090178
:101260008DF8051040F00D018DF8061040F00900D2
:101270008DF80700642408E00948FFF7F5F8042812
:1012800003D02D2107A0FFF778FF042301AA7E21B8
:1012900003480094FFF76EF90028EDD11CBD000053
:1012A000100000202E2E5C5372635C6932632D6C3B
:1012B00063642E6300000000FFF726FAFFF7E2FEEA
:1012C000FFF784FEFFF798FEFFF767FF4FF4FA641D
:1012D0008020FFF785FF0EA0FFF778FF2046FEF77E
:1012E000D3FF0120FFF77CFF6420FEF7CDFFC02075
:1012F000FFF776FF09A0FFF769FF2046FEF7C4FF5E
:101300000120FFF76DFF6420FEF7BEFFE0E700005D
:1013100051756F63204E676F000000005472616367
:101320006579204E676F000000000000000000009B
:10133000010203040607080900000000010203047B
:101340006013000800000020100000007C1100085D
:101350007013000810000020580400008C110008D1
:101360000100000010000000000000000024F40054
:040000050800018965
:00000001FF
